{
  "contractName": "Convert",
  "abi": [
    {
      "constant": true,
      "inputs": [
        {
          "name": "_addr",
          "type": "address"
        }
      ],
      "name": "toString",
      "outputs": [
        {
          "name": "",
          "type": "string"
        }
      ],
      "payable": false,
      "stateMutability": "pure",
      "type": "function"
    },
    {
      "constant": true,
      "inputs": [
        {
          "name": "_str",
          "type": "string"
        }
      ],
      "name": "toAddress",
      "outputs": [
        {
          "name": "",
          "type": "address"
        }
      ],
      "payable": false,
      "stateMutability": "pure",
      "type": "function"
    }
  ],
  "bytecode": "0x610561610030600b82828239805160001a6073146000811461002057610022565bfe5b5030600052607381538281f3fe73000000000000000000000000000000000000000030146080604052600436106100465760003560e01c63ffffffff16806356ca623e1461004b5780637e4115ba146100e6575b600080fd5b6100716004803603602081101561006157600080fd5b5035600160a060020a03166101a8565b6040805160208082528351818301528351919283929083019185019080838360005b838110156100ab578181015183820152602001610093565b50505050905090810190601f1680156100d85780820380516001836020036101000a031916815260200191505b509250505060405180910390f35b61018c600480360360208110156100fc57600080fd5b81019060208101813564010000000081111561011757600080fd5b82018360208201111561012957600080fd5b8035906020019184600183028401116401000000008311171561014b57600080fd5b91908080601f016020809104026020016040519081016040528093929190818152602001838380828437600092019190915250929550610387945050505050565b60408051600160a060020a039092168252519081900360200190f35b604080518082018252601081527f30313233343536373839616263646566000000000000000000000000000000006020820152815160338082526060828101909452600160a060020a03851660001b929184916020820181803883390190505090507f300000000000000000000000000000000000000000000000000000000000000081600081518110151561023a57fe5b906020010190600160f860020a031916908160001a9053507f780000000000000000000000000000000000000000000000000000000000000081600181518110151561028257fe5b906020010190600160f860020a031916908160001a90535060005b601481101561037e5782600485600c8401602081106102b857fe5b1a60f81b600160f860020a031916901c60f81c60ff168151811015156102da57fe5b90602001015160f81c60f81b82826002026002018151811015156102fa57fe5b906020010190600160f860020a031916908160001a9053508284600c83016020811061032257fe5b1a60f81b600f60f81b1660f81c60ff1681518110151561033e57fe5b90602001015160f81c60f81b828260020260030181518110151561035e57fe5b906020010190600160f860020a031916908160001a90535060010161029d565b50949350505050565b60008181808060025b602a81101561052a576101008402935084818151811015156103ae57fe5b90602001015160f81c60f81b60f81c60ff16925084816001018151811015156103d357fe5b90602001015160f81c60f81b60f81c60ff169150606183600160a060020a03161015801561040b5750606683600160a060020a031611155b1561041b5760578303925061047f565b604183600160a060020a03161015801561043f5750604683600160a060020a031611155b1561044f5760378303925061047f565b603083600160a060020a0316101580156104735750603983600160a060020a031611155b1561047f576030830392505b606182600160a060020a0316101580156104a35750606682600160a060020a031611155b156104b357605782039150610517565b604182600160a060020a0316101580156104d75750604682600160a060020a031611155b156104e757603782039150610517565b603082600160a060020a03161015801561050b5750603982600160a060020a031611155b15610517576030820391505b6010830282019390930192600201610390565b50919594505050505056fea165627a7a72305820e0e4adfa6f1c604389b566e8ecefc562ef2a4846e8f42cb46f01e2f7b438a6890029",
  "source": "pragma solidity ^0.5.0;\n\n\nlibrary Convert {\n    function toString(address _addr) public pure returns (string memory) {\n        bytes32 value = bytes32(uint256(_addr));\n        bytes memory alphabet = \"0123456789abcdef\";\n\n        bytes memory str = new bytes(51);\n        str[0] = \"0\";\n        str[1] = \"x\";\n        for (uint256 i = 0; i < 20; i++) {\n            str[2 + i * 2] = alphabet[uint8(value[i + 12] >> 4)];\n            str[3 + i * 2] = alphabet[uint8(value[i + 12] & 0x0f)];\n        }\n        return string(str);\n    }\n\n    function toAddress(string memory _str) public pure returns (address) {\n        bytes memory tmp = bytes(_str);\n        uint160 iaddr = 0;\n        uint160 curr;\n        uint160 next;\n        for (uint256 i = 2; i < 2 + 2 * 20; i += 2) {\n            iaddr *= 256;\n            curr = uint160(uint8(tmp[i]));\n            next = uint160(uint8(tmp[i + 1]));\n            if ((curr >= 97) && (curr <= 102)) {\n                curr -= 87;\n            } else if ((curr >= 65) && (curr <= 70)) {\n                curr -= 55;\n            } else if ((curr >= 48) && (curr <= 57)) {\n                curr -= 48;\n            }\n            if ((next >= 97) && (next <= 102)) {\n                next -= 87;\n            } else if ((next >= 65) && (next <= 70)) {\n                next -= 55;\n            } else if ((next >= 48) && (next <= 57)) {\n                next -= 48;\n            }\n            iaddr += (curr * 16 + next);\n        }\n        return address(iaddr);\n    }\n}\n",
  "sourcePath": "/Users/100x/Evrynetlabs/warp-contract/contracts/lib/Convert.sol",
  "compiler": {
    "name": "solc",
    "version": "0.5.0+commit.1d4f565a.Emscripten.clang"
  },
  "schemaVersion": "3.0.19",
  "updatedAt": "2020-03-20T07:56:39.934Z",
  "devdoc": {
    "methods": {}
  },
  "userdoc": {
    "methods": {}
  }
}