{
  "contractName": "EvrynetCreditCustodian",
  "abi": [
    {
      "constant": false,
      "inputs": [
        {
          "name": "_typeID",
          "type": "uint256"
        }
      ],
      "name": "add",
      "outputs": [],
      "payable": false,
      "stateMutability": "nonpayable",
      "type": "function"
    },
    {
      "constant": false,
      "inputs": [
        {
          "name": "_typeID",
          "type": "uint256"
        },
        {
          "name": "_prevTypeID",
          "type": "uint256"
        }
      ],
      "name": "remove",
      "outputs": [],
      "payable": false,
      "stateMutability": "nonpayable",
      "type": "function"
    },
    {
      "constant": true,
      "inputs": [
        {
          "name": "",
          "type": "uint256"
        }
      ],
      "name": "linklist",
      "outputs": [
        {
          "name": "",
          "type": "uint256"
        }
      ],
      "payable": false,
      "stateMutability": "view",
      "type": "function"
    },
    {
      "constant": true,
      "inputs": [
        {
          "name": "",
          "type": "uint256"
        }
      ],
      "name": "assets",
      "outputs": [
        {
          "name": "",
          "type": "bool"
        }
      ],
      "payable": false,
      "stateMutability": "view",
      "type": "function"
    },
    {
      "inputs": [
        {
          "name": "_credit",
          "type": "address"
        }
      ],
      "payable": false,
      "stateMutability": "nonpayable",
      "type": "constructor"
    },
    {
      "anonymous": false,
      "inputs": [
        {
          "indexed": true,
          "name": "to",
          "type": "address"
        },
        {
          "indexed": true,
          "name": "typeID",
          "type": "uint256"
        },
        {
          "indexed": false,
          "name": "value",
          "type": "uint256"
        }
      ],
      "name": "Unlock",
      "type": "event"
    },
    {
      "anonymous": false,
      "inputs": [
        {
          "indexed": true,
          "name": "operator",
          "type": "address"
        },
        {
          "indexed": true,
          "name": "from",
          "type": "address"
        },
        {
          "indexed": true,
          "name": "typeID",
          "type": "uint256"
        },
        {
          "indexed": false,
          "name": "value",
          "type": "uint256"
        },
        {
          "indexed": false,
          "name": "data",
          "type": "bytes"
        }
      ],
      "name": "Lock",
      "type": "event"
    },
    {
      "anonymous": false,
      "inputs": [
        {
          "indexed": true,
          "name": "typeID",
          "type": "uint256"
        }
      ],
      "name": "AddedAsset",
      "type": "event"
    },
    {
      "anonymous": false,
      "inputs": [
        {
          "indexed": true,
          "name": "typeID",
          "type": "uint256"
        }
      ],
      "name": "RemovedAsset",
      "type": "event"
    },
    {
      "constant": false,
      "inputs": [
        {
          "name": "_typeID",
          "type": "uint256"
        },
        {
          "name": "_value",
          "type": "uint256"
        }
      ],
      "name": "unlock",
      "outputs": [],
      "payable": false,
      "stateMutability": "nonpayable",
      "type": "function"
    },
    {
      "constant": false,
      "inputs": [
        {
          "name": "_typeID",
          "type": "uint256"
        },
        {
          "name": "_value",
          "type": "uint256"
        }
      ],
      "name": "lock",
      "outputs": [],
      "payable": false,
      "stateMutability": "nonpayable",
      "type": "function"
    },
    {
      "constant": false,
      "inputs": [
        {
          "name": "_operator",
          "type": "address"
        },
        {
          "name": "_from",
          "type": "address"
        },
        {
          "name": "_typeID",
          "type": "uint256"
        },
        {
          "name": "_value",
          "type": "uint256"
        },
        {
          "name": "_data",
          "type": "bytes"
        }
      ],
      "name": "onEER2Received",
      "outputs": [
        {
          "name": "",
          "type": "bytes4"
        }
      ],
      "payable": false,
      "stateMutability": "nonpayable",
      "type": "function"
    },
    {
      "constant": false,
      "inputs": [
        {
          "name": "_operator",
          "type": "address"
        },
        {
          "name": "_from",
          "type": "address"
        },
        {
          "name": "_typeIDs",
          "type": "uint256[]"
        },
        {
          "name": "_values",
          "type": "uint256[]"
        },
        {
          "name": "_data",
          "type": "bytes"
        }
      ],
      "name": "onEER2BatchReceived",
      "outputs": [
        {
          "name": "",
          "type": "bytes4"
        }
      ],
      "payable": false,
      "stateMutability": "nonpayable",
      "type": "function"
    }
  ],
  "bytecode": "0x608060405234801561001057600080fd5b50604051602080610fc98339810180604052602081101561003057600080fd5b505160028054600160a060020a031916600160a060020a03909216919091179055610f69806100606000396000f3fe6080604052600436106100715760003560e01c63ffffffff16806309a23c29146100765780631003e2d21461014d5780631338736f146101795780635bfadb24146101a95780636526db7a146101d957806371bc35ab14610209578063baf5f22814610245578063cf35bdd01461037f575b600080fd5b34801561008257600080fd5b50610118600480360360a081101561009957600080fd5b600160a060020a03823581169260208101359091169160408201359160608101359181019060a0810160808201356401000000008111156100d957600080fd5b8201836020820111156100eb57600080fd5b8035906020019184600183028401116401000000008311171561010d57600080fd5b5090925090506103bd565b604080517fffffffff000000000000000000000000000000000000000000000000000000009092168252519081900360200190f35b34801561015957600080fd5b506101776004803603602081101561017057600080fd5b5035610468565b005b34801561018557600080fd5b506101776004803603604081101561019c57600080fd5b508035906020013561093d565b3480156101b557600080fd5b50610177600480360360408110156101cc57600080fd5b5080359060200135610ae5565b3480156101e557600080fd5b50610177600480360360408110156101fc57600080fd5b5080359060200135610cc4565b34801561021557600080fd5b506102336004803603602081101561022c57600080fd5b5035610e24565b60408051918252519081900360200190f35b34801561025157600080fd5b50610118600480360360a081101561026857600080fd5b600160a060020a03823581169260208101359091169181019060608101604082013564010000000081111561029c57600080fd5b8201836020820111156102ae57600080fd5b803590602001918460208302840111640100000000831117156102d057600080fd5b9193909290916020810190356401000000008111156102ee57600080fd5b82018360208201111561030057600080fd5b8035906020019184602083028401116401000000008311171561032257600080fd5b91939092909160208101903564010000000081111561034057600080fd5b82018360208201111561035257600080fd5b8035906020019184600183028401116401000000008311171561037457600080fd5b509092509050610e36565b34801561038b57600080fd5b506103a9600480360360208110156103a257600080fd5b5035610f28565b604080519115158252519081900360200190f35b60008486600160a060020a031688600160a060020a03167fda16e0e36c9314946d6174ade0a7a5df06ffaf49c5c56d3f01193d53db0ace9887878760405180848152602001806020018281038252848482818152602001925080828437600083820152604051601f909101601f1916909201829003965090945050505050a4507f09a23c29000000000000000000000000000000000000000000000000000000009695505050505050565b60008181526020819052604090205460ff161561051b576040805160e560020a62461bcd02815260206004820152604c60248201527f57686974656c6973744173736574733a2063616e6e6f7420616464207468652060448201527f617373657420746861742068617320616c7265616479206265656e20696e207460648201527f68652077686974656c6973740000000000000000000000000000000000000000608482015290519081900360a40190fd5b801515610598576040805160e560020a62461bcd02815260206004820152602d60248201527f57686974656c6973744173736574733a2074686520637265646974206964206360448201527f616e6e6f74206265207a65726f00000000000000000000000000000000000000606482015290519081900360840190fd5b600254604080517f01c376a0000000000000000000000000000000000000000000000000000000008152600481018490529051600160a060020a03909216916301c376a091602480820192600092909190829003018186803b1580156105fd57600080fd5b505afa158015610611573d6000803e3d6000fd5b505050506040513d6000823e601f3d908101601f19168201604052602081101561063a57600080fd5b81019080805164010000000081111561065257600080fd5b8201602081018481111561066557600080fd5b815164010000000081118282018710171561067f57600080fd5b50506040517f7e4115ba00000000000000000000000000000000000000000000000000000000815260206004820181815283516024840152835173__Convert_______________________________9750637e4115ba96509394509283926044019185019080838360005b838110156107025781810151838201526020016106ea565b50505050905090810190601f16801561072f5780820380516001836020036101000a031916815260200191505b509250505060206040518083038186803b15801561074c57600080fd5b505af4158015610760573d6000803e3d6000fd5b505050506040513d602081101561077657600080fd5b5051604080517f01ffc9a70000000000000000000000000000000000000000000000000000000081527f2ad5032c0000000000000000000000000000000000000000000000000000000060048201529051600160a060020a03909216916301ffc9a791602480820192602092909190829003018186803b1580156107f957600080fd5b505afa15801561080d573d6000803e3d6000fd5b505050506040513d602081101561082357600080fd5b505115156108c7576040805160e560020a62461bcd02815260206004820152604160248201527f57686974656c6973744173736574733a20746865206d6574616461746120636f60448201527f6e7472616374206973206e6f7420737570706f7274656420696e74657266616360648201527f6500000000000000000000000000000000000000000000000000000000000000608482015290519081900360a40190fd5b600081815260208181526040808320805460ff191660019081179091559091527fa6eef7e35abe7026729641147f7915573c7e97b47efa546f5f6e3230263bcb498054828420558280528390555182917f808590b2e92602ac21a55184174c55027e40248219525b4fbe0f637f5f3a346c91a250565b600082815260208190526040902054829060ff1615156109cd576040805160e560020a62461bcd02815260206004820152602960248201527f57686974656c6973744173736574733a2074686520637265646974206973207060448201527f726f686962697465640000000000000000000000000000000000000000000000606482015290519081900360840190fd5b6002546040805160208101808352600080835292517ff242432a00000000000000000000000000000000000000000000000000000000815233600482018181523060248401819052604484018b9052606484018a905260a060848501908152865160a48601528651600160a060020a039099169863f242432a98949792968d968d9694959460c490910192908190849084905b83811015610a78578181015183820152602001610a60565b50505050905090810190601f168015610aa55780820380516001836020036101000a031916815260200191505b509650505050505050600060405180830381600087803b158015610ac857600080fd5b505af1158015610adc573d6000803e3d6000fd5b50505050505050565b600082815260208190526040902054829060ff161515610b75576040805160e560020a62461bcd02815260206004820152602960248201527f57686974656c6973744173736574733a2074686520637265646974206973207060448201527f726f686962697465640000000000000000000000000000000000000000000000606482015290519081900360840190fd5b6002546040805160208101808352600080835292517ff242432a00000000000000000000000000000000000000000000000000000000815230600482018181523360248401819052604484018b9052606484018a905260a060848501908152865160a48601528651600160a060020a039099169863f242432a98949792968d968d9694959460c490910192908190849084905b83811015610c20578181015183820152602001610c08565b50505050905090810190601f168015610c4d5780820380516001836020036101000a031916815260200191505b509650505050505050600060405180830381600087803b158015610c7057600080fd5b505af1158015610c84573d6000803e3d6000fd5b50506040805185815290518693503392507ff7870c5b224cbc19873599e46ccfc7103934650509b1af0c3ce90138377c20049181900360200190a3505050565b811515610d41576040805160e560020a62461bcd02815260206004820152602d60248201527f57686974656c6973744173736574733a2074686520637265646974206964206360448201527f616e6e6f74206265207a65726f00000000000000000000000000000000000000606482015290519081900360840190fd5b6000818152600160205260409020548214610dcc576040805160e560020a62461bcd02815260206004820152602860248201527f57686974656c6973744173736574733a20696e76616c69642072656d6f76652060448201527f617267756d656e74000000000000000000000000000000000000000000000000606482015290519081900360840190fd5b600082815260208181526040808320805460ff1916905560019091528082208054848452828420558483528290555183917fd8a3abf4ebfa76253e2780cdc5ec4857e8e40886cdcd10b169ecb18052d6ce2291a25050565b60016020526000908152604090205481565b6000805b86811015610ef9576000888883818110610e5057fe5b90506020020135905060008787848181101515610e6957fe5b905060200201359050818b600160a060020a03168d600160a060020a03167fda16e0e36c9314946d6174ade0a7a5df06ffaf49c5c56d3f01193d53db0ace98848a8a60405180848152602001806020018281038252848482818152602001925080828437600083820152604051601f909101601f1916909201829003965090945050505050a45050600101610e3a565b507fbaf5f228000000000000000000000000000000000000000000000000000000009998505050505050505050565b60006020819052908152604090205460ff168156fea165627a7a72305820292499b71927fd9e7a3929cb15a18e2a6525e103b655d06df248c899ce25e9220029",
  "source": "pragma solidity ^0.5.0;\n\nimport \"./WhitelistAssets.sol\";\nimport \"@Evrynetlabs/credit-contract/contracts/IEER2TokenReceiver.sol\";\nimport \"./ICreditCustodian.sol\";\n\ncontract EvrynetCreditCustodian is WhitelistAssets, IEER2TokenReceiver, ICreditCustodian {\n    // onReceive function signatures\n    bytes4 internal constant EER2_RECEIVED_VALUE = 0x09a23c29;\n    bytes4 internal constant EER2_BATCH_RECEIVED_VALUE = 0xbaf5f228;\n\n    constructor(address _credit) public WhitelistAssets(_credit) {}\n\n    function unlock(uint256 _typeID, uint256 _value) external onlyWhitelistedAssets(_typeID) {\n        credit.safeTransferFrom(address(this), msg.sender, _typeID, _value, bytes(\"\"));\n        emit Unlock(msg.sender, _typeID, _value);\n    }\n\n    function lock(uint256 _typeID, uint256 _value) external onlyWhitelistedAssets(_typeID) {\n        credit.safeTransferFrom(msg.sender, address(this), _typeID, _value, bytes(\"\"));\n    }\n\n    // EER2 implementation\n    function onEER2Received(\n        address _operator,\n        address _from,\n        uint256 _typeID,\n        uint256 _value,\n        bytes calldata _data\n    ) external returns (bytes4) {\n        emit Lock(_operator, _from, _typeID, _value, _data);\n        return EER2_RECEIVED_VALUE;\n    }\n\n    function onEER2BatchReceived(\n        address _operator,\n        address _from,\n        uint256[] calldata _typeIDs,\n        uint256[] calldata _values,\n        bytes calldata _data\n    ) external returns (bytes4) {\n        for (uint256 i = 0; i < _typeIDs.length; ++i) {\n            uint256 typeID = _typeIDs[i];\n            uint256 value = _values[i];\n            emit Lock(_operator, _from, typeID, value, _data);\n        }\n        return EER2_BATCH_RECEIVED_VALUE;\n    }\n}\n",
  "sourcePath": "/Users/100x/Evrynetlabs/warp-contract/contracts/EvrynetCreditCustodian.sol",
  "compiler": {
    "name": "solc",
    "version": "0.5.0+commit.1d4f565a.Emscripten.clang"
  },
  "schemaVersion": "3.0.19",
  "updatedAt": "2020-03-20T07:56:39.922Z",
  "devdoc": {
    "methods": {
      "add(uint256)": {
        "params": {
          "_typeID": "the ID of credit being added"
        }
      },
      "remove(uint256,uint256)": {
        "params": {
          "_prevTypeID": "the prior credit ID in the linklist",
          "_typeID": "the ID of credit being removed"
        }
      }
    }
  },
  "userdoc": {
    "methods": {
      "add(uint256)": {
        "notice": "Add a new asset the whitelist asset database"
      },
      "remove(uint256,uint256)": {
        "notice": "remove an asset from the whitelist asset database"
      }
    }
  }
}