{
  "contractName": "Metadata",
  "abi": [
    {
      "inputs": [
        {
          "name": "name",
          "type": "string"
        },
        {
          "name": "issuer",
          "type": "string"
        },
        {
          "name": "decimals",
          "type": "uint8"
        }
      ],
      "payable": false,
      "stateMutability": "nonpayable",
      "type": "constructor"
    },
    {
      "constant": true,
      "inputs": [],
      "name": "name",
      "outputs": [
        {
          "name": "",
          "type": "string"
        }
      ],
      "payable": false,
      "stateMutability": "view",
      "type": "function"
    },
    {
      "constant": true,
      "inputs": [],
      "name": "issuer",
      "outputs": [
        {
          "name": "",
          "type": "string"
        }
      ],
      "payable": false,
      "stateMutability": "view",
      "type": "function"
    },
    {
      "constant": true,
      "inputs": [],
      "name": "decimals",
      "outputs": [
        {
          "name": "",
          "type": "uint8"
        }
      ],
      "payable": false,
      "stateMutability": "view",
      "type": "function"
    },
    {
      "constant": true,
      "inputs": [
        {
          "name": "_interfaceId",
          "type": "bytes4"
        }
      ],
      "name": "supportsInterface",
      "outputs": [
        {
          "name": "",
          "type": "bool"
        }
      ],
      "payable": false,
      "stateMutability": "view",
      "type": "function"
    }
  ],
  "bytecode": "0x608060405234801561001057600080fd5b506040516104fa3803806104fa8339810180604052606081101561003357600080fd5b81019080805164010000000081111561004b57600080fd5b8201602081018481111561005e57600080fd5b815164010000000081118282018710171561007857600080fd5b5050929190602001805164010000000081111561009457600080fd5b820160208101848111156100a757600080fd5b81516401000000008111828201871017156100c157600080fd5b5050602091820151855191945092506100e09160009190860190610111565b5081516100f4906001906020850190610111565b506002805460ff191660ff92909216919091179055506101ac9050565b828054600181600116156101000203166002900490600052602060002090601f016020900481019282601f1061015257805160ff191683800117855561017f565b8280016001018555821561017f579182015b8281111561017f578251825591602001919060010190610164565b5061018b92915061018f565b5090565b6101a991905b8082111561018b5760008155600101610195565b90565b61033f806101bb6000396000f3fe6080604052600436106100455760003560e01c63ffffffff16806301ffc9a71461004a57806306fdde03146100a75780631d14384814610131578063313ce56714610146575b600080fd5b34801561005657600080fd5b506100936004803603602081101561006d57600080fd5b50357bffffffffffffffffffffffffffffffffffffffffffffffffffffffff1916610171565b604080519115158252519081900360200190f35b3480156100b357600080fd5b506100bc610214565b6040805160208082528351818301528351919283929083019185019080838360005b838110156100f65781810151838201526020016100de565b50505050905090810190601f1680156101235780820380516001836020036101000a031916815260200191505b509250505060405180910390f35b34801561013d57600080fd5b506100bc6102aa565b34801561015257600080fd5b5061015b61030a565b6040805160ff9092168252519081900360200190f35b60007bffffffffffffffffffffffffffffffffffffffffffffffffffffffff1982167f01ffc9a70000000000000000000000000000000000000000000000000000000014806101fe57507bffffffffffffffffffffffffffffffffffffffffffffffffffffffff1982167f2ad5032c00000000000000000000000000000000000000000000000000000000145b1561020b5750600161020f565b5060005b919050565b60008054604080516020601f60026000196101006001881615020190951694909404938401819004810282018101909252828152606093909290918301828280156102a05780601f10610275576101008083540402835291602001916102a0565b820191906000526020600020905b81548152906001019060200180831161028357829003601f168201915b5050505050905090565b60018054604080516020601f600260001961010087891615020190951694909404938401819004810282018101909252828152606093909290918301828280156102a05780601f10610275576101008083540402835291602001916102a0565b60025460ff169056fea165627a7a72305820282602a530e5a5adb7b1a622331fd90a292ff653644e1bd37589e2d1b739126c0029",
  "source": "pragma solidity ^0.5.0;\n\nimport \"./IMetadata.sol\";\nimport \"@openzeppelin/contracts/introspection/IERC165.sol\";\n\n\ncontract Metadata is IMetadata, IERC165 {\n    string private _name;\n    string private _issuer;\n    uint8 private _decimals;\n\n    bytes4 private constant INTERFACE_SIGNATURE_ERC165 = 0x01ffc9a7;\n    bytes4 private constant INTERFACE_SIGNATURE_METADATA = 0x2ad5032c;\n\n    constructor(string memory name, string memory issuer, uint8 decimals)\n        public\n    {\n        _name = name;\n        _issuer = issuer;\n        _decimals = decimals;\n    }\n\n    function name() external view returns (string memory) {\n        return _name;\n    }\n\n    function issuer() external view returns (string memory) {\n        return _issuer;\n    }\n\n    function decimals() external view returns (uint8) {\n        return _decimals;\n    }\n\n    function supportsInterface(bytes4 _interfaceId)\n        external\n        view\n        returns (bool)\n    {\n        if (\n            _interfaceId == INTERFACE_SIGNATURE_ERC165 ||\n            _interfaceId == INTERFACE_SIGNATURE_METADATA\n        ) {\n            return true;\n        }\n\n        return false;\n    }\n}\n",
  "sourcePath": "/Users/100x/Evrynetlabs/warp-contract/contracts/Metadata.sol",
  "compiler": {
    "name": "solc",
    "version": "0.5.0+commit.1d4f565a.Emscripten.clang"
  },
  "schemaVersion": "3.0.19",
  "updatedAt": "2020-03-20T07:56:39.925Z",
  "devdoc": {
    "methods": {}
  },
  "userdoc": {
    "methods": {}
  }
}