{
  "contractName": "NativeAssetCustodian",
  "abi": [
    {
      "inputs": [],
      "payable": true,
      "stateMutability": "payable",
      "type": "constructor"
    },
    {
      "anonymous": false,
      "inputs": [
        {
          "indexed": true,
          "name": "owner",
          "type": "address"
        },
        {
          "indexed": false,
          "name": "value",
          "type": "uint256"
        }
      ],
      "name": "LockNative",
      "type": "event"
    },
    {
      "anonymous": false,
      "inputs": [
        {
          "indexed": true,
          "name": "to",
          "type": "address"
        },
        {
          "indexed": false,
          "name": "value",
          "type": "uint256"
        }
      ],
      "name": "UnlockNative",
      "type": "event"
    },
    {
      "constant": false,
      "inputs": [],
      "name": "lock",
      "outputs": [],
      "payable": true,
      "stateMutability": "payable",
      "type": "function"
    },
    {
      "constant": false,
      "inputs": [
        {
          "name": "_to",
          "type": "address"
        },
        {
          "name": "_value",
          "type": "uint256"
        }
      ],
      "name": "unlock",
      "outputs": [],
      "payable": false,
      "stateMutability": "nonpayable",
      "type": "function"
    }
  ],
  "bytecode": "0x6080604052610212806100136000396000f3fe60806040526004361061002f5760003560e01c63ffffffff1680637eee288d14610034578063f83d08ba1461007c575b600080fd5b34801561004057600080fd5b5061007a6004803603604081101561005757600080fd5b5073ffffffffffffffffffffffffffffffffffffffff8135169060200135610084565b005b61007a6101ae565b303181111561011a57604080517f08c379a000000000000000000000000000000000000000000000000000000000815260206004820152603f60248201527f4e61746976653a20756e61626c6520746f20756e6c6f636b20746865206e617460448201527f6976652061737365742c20696e73756666696369656e742062616c616e636500606482015290519081900360840190fd5b60405173ffffffffffffffffffffffffffffffffffffffff83169082156108fc029083906000818181858888f1935050505015801561015d573d6000803e3d6000fd5b5060408051828152905173ffffffffffffffffffffffffffffffffffffffff8416917fdc807309ce023a19b69170961efce26e8db574b914fcf931e0dca6dbb12b813d919081900360200190a25050565b60408051348152905133917f10174aa9acc45c3bf5915fde5771e6284c249f1b607d4a08b75411c1c472a678919081900360200190a256fea165627a7a72305820f4591ed40e79fa9031415302fc6213eb12c3193d92e11907d0f972ca2267b9360029",
  "source": "pragma solidity ^0.5.0;\n\n\n/// @author Evrynet Team\n/// @title The storage which holds a pre-minted native asset\ncontract NativeAssetCustodian {\n    constructor() public payable {}\n\n    event LockNative(address indexed owner, uint256 value);\n    event UnlockNative(address indexed to, uint256 value);\n\n    /// Lock the native asset to the contract\n    function lock() external payable {\n        emit LockNative(msg.sender, msg.value);\n    }\n\n    /// Unlock the native asset from the contract to the given address\n    /// @param _value of native asset to be pay off\n    function unlock(address payable _to, uint256 _value) external {\n        require(\n            address(this).balance >= _value,\n            \"Native: unable to unlock the native asset, insufficient balance\"\n        );\n        _to.transfer(_value);\n        emit UnlockNative(_to, _value);\n    }\n}\n",
  "sourcePath": "/Users/100x/Evrynetlabs/warp-contract/contracts/NativeAssetCustodian.sol",
  "compiler": {
    "name": "solc",
    "version": "0.5.0+commit.1d4f565a.Emscripten.clang"
  },
  "schemaVersion": "3.0.19",
  "updatedAt": "2020-04-08T07:30:09.345Z",
  "devdoc": {
    "author": "Evrynet Team",
    "methods": {
      "unlock(address,uint256)": {
        "params": {
          "_value": "of native asset to be pay off"
        }
      }
    },
    "title": "The storage which holds a pre-minted native asset"
  },
  "userdoc": {
    "methods": {
      "lock()": {
        "notice": "Lock the native asset to the contract"
      },
      "unlock(address,uint256)": {
        "notice": "Unlock the native asset from the contract to the given address"
      }
    }
  }
}