{
  "contractName": "StellarCreditCustodian",
  "abi": [
    {
      "constant": false,
      "inputs": [
        {
          "name": "_typeID",
          "type": "uint256"
        }
      ],
      "name": "add",
      "outputs": [],
      "payable": false,
      "stateMutability": "nonpayable",
      "type": "function"
    },
    {
      "constant": false,
      "inputs": [
        {
          "name": "_typeID",
          "type": "uint256"
        },
        {
          "name": "_prevTypeID",
          "type": "uint256"
        }
      ],
      "name": "remove",
      "outputs": [],
      "payable": false,
      "stateMutability": "nonpayable",
      "type": "function"
    },
    {
      "constant": true,
      "inputs": [
        {
          "name": "",
          "type": "uint256"
        }
      ],
      "name": "linklist",
      "outputs": [
        {
          "name": "",
          "type": "uint256"
        }
      ],
      "payable": false,
      "stateMutability": "view",
      "type": "function"
    },
    {
      "constant": true,
      "inputs": [
        {
          "name": "",
          "type": "uint256"
        }
      ],
      "name": "assets",
      "outputs": [
        {
          "name": "",
          "type": "bool"
        }
      ],
      "payable": false,
      "stateMutability": "view",
      "type": "function"
    },
    {
      "inputs": [
        {
          "name": "_credit",
          "type": "address"
        },
        {
          "name": "_threshold",
          "type": "uint16"
        }
      ],
      "payable": false,
      "stateMutability": "nonpayable",
      "type": "constructor"
    },
    {
      "anonymous": false,
      "inputs": [
        {
          "indexed": true,
          "name": "to",
          "type": "address"
        }
      ],
      "name": "Migrate",
      "type": "event"
    },
    {
      "anonymous": false,
      "inputs": [
        {
          "indexed": true,
          "name": "to",
          "type": "address"
        },
        {
          "indexed": true,
          "name": "typeID",
          "type": "uint256"
        },
        {
          "indexed": false,
          "name": "value",
          "type": "uint256"
        }
      ],
      "name": "Unlock",
      "type": "event"
    },
    {
      "anonymous": false,
      "inputs": [
        {
          "indexed": true,
          "name": "operator",
          "type": "address"
        },
        {
          "indexed": true,
          "name": "from",
          "type": "address"
        },
        {
          "indexed": true,
          "name": "typeID",
          "type": "uint256"
        },
        {
          "indexed": false,
          "name": "value",
          "type": "uint256"
        },
        {
          "indexed": false,
          "name": "data",
          "type": "bytes"
        }
      ],
      "name": "Lock",
      "type": "event"
    },
    {
      "anonymous": false,
      "inputs": [
        {
          "indexed": true,
          "name": "typeID",
          "type": "uint256"
        }
      ],
      "name": "AddedAsset",
      "type": "event"
    },
    {
      "anonymous": false,
      "inputs": [
        {
          "indexed": true,
          "name": "typeID",
          "type": "uint256"
        }
      ],
      "name": "RemovedAsset",
      "type": "event"
    },
    {
      "constant": false,
      "inputs": [
        {
          "name": "_to",
          "type": "address"
        }
      ],
      "name": "migrationVote",
      "outputs": [],
      "payable": false,
      "stateMutability": "nonpayable",
      "type": "function"
    },
    {
      "constant": false,
      "inputs": [
        {
          "name": "_typeID",
          "type": "uint256"
        },
        {
          "name": "_value",
          "type": "uint256"
        }
      ],
      "name": "lock",
      "outputs": [],
      "payable": false,
      "stateMutability": "nonpayable",
      "type": "function"
    },
    {
      "constant": false,
      "inputs": [
        {
          "name": "_typeID",
          "type": "uint256"
        },
        {
          "name": "_value",
          "type": "uint256"
        }
      ],
      "name": "unlock",
      "outputs": [],
      "payable": false,
      "stateMutability": "nonpayable",
      "type": "function"
    }
  ],
  "bytecode": "0x608060405234801561001057600080fd5b50604051604080610fa48339810180604052604081101561003057600080fd5b50805160209091015160028054600160a060020a031916600160a060020a039093169290921760a060020a61ffff0219167401000000000000000000000000000000000000000061ffff90921691909102179055610f11806100936000396000f3fe6080604052600436106100665760003560e01c63ffffffff1680631003e2d21461006b5780631338736f146100975780635bfadb24146100c75780636526db7a146100f757806371bc35ab146101275780637ede856414610163578063cf35bdd014610196575b600080fd5b34801561007757600080fd5b506100956004803603602081101561008e57600080fd5b50356101d4565b005b3480156100a357600080fd5b50610095600480360360408110156100ba57600080fd5b50803590602001356106a9565b3480156100d357600080fd5b50610095600480360360408110156100ea57600080fd5b508035906020013561088f565b34801561010357600080fd5b506100956004803603604081101561011a57600080fd5b5080359060200135610af1565b34801561013357600080fd5b506101516004803603602081101561014a57600080fd5b5035610c51565b60408051918252519081900360200190f35b34801561016f57600080fd5b506100956004803603602081101561018657600080fd5b5035600160a060020a0316610c63565b3480156101a257600080fd5b506101c0600480360360208110156101b957600080fd5b5035610ed0565b604080519115158252519081900360200190f35b60008181526020819052604090205460ff1615610287576040805160e560020a62461bcd02815260206004820152604c60248201527f57686974656c6973744173736574733a2063616e6e6f7420616464207468652060448201527f617373657420746861742068617320616c7265616479206265656e20696e207460648201527f68652077686974656c6973740000000000000000000000000000000000000000608482015290519081900360a40190fd5b801515610304576040805160e560020a62461bcd02815260206004820152602d60248201527f57686974656c6973744173736574733a2074686520637265646974206964206360448201527f616e6e6f74206265207a65726f00000000000000000000000000000000000000606482015290519081900360840190fd5b600254604080517f01c376a0000000000000000000000000000000000000000000000000000000008152600481018490529051600160a060020a03909216916301c376a091602480820192600092909190829003018186803b15801561036957600080fd5b505afa15801561037d573d6000803e3d6000fd5b505050506040513d6000823e601f3d908101601f1916820160405260208110156103a657600080fd5b8101908080516401000000008111156103be57600080fd5b820160208101848111156103d157600080fd5b81516401000000008111828201871017156103eb57600080fd5b50506040517f7e4115ba00000000000000000000000000000000000000000000000000000000815260206004820181815283516024840152835173__Convert_______________________________9750637e4115ba96509394509283926044019185019080838360005b8381101561046e578181015183820152602001610456565b50505050905090810190601f16801561049b5780820380516001836020036101000a031916815260200191505b509250505060206040518083038186803b1580156104b857600080fd5b505af41580156104cc573d6000803e3d6000fd5b505050506040513d60208110156104e257600080fd5b5051604080517f01ffc9a70000000000000000000000000000000000000000000000000000000081527f2ad5032c0000000000000000000000000000000000000000000000000000000060048201529051600160a060020a03909216916301ffc9a791602480820192602092909190829003018186803b15801561056557600080fd5b505afa158015610579573d6000803e3d6000fd5b505050506040513d602081101561058f57600080fd5b50511515610633576040805160e560020a62461bcd02815260206004820152604160248201527f57686974656c6973744173736574733a20746865206d6574616461746120636f60448201527f6e7472616374206973206e6f7420737570706f7274656420696e74657266616360648201527f6500000000000000000000000000000000000000000000000000000000000000608482015290519081900360a40190fd5b600081815260208181526040808320805460ff191660019081179091559091527fa6eef7e35abe7026729641147f7915573c7e97b47efa546f5f6e3230263bcb498054828420558280528390555182917f808590b2e92602ac21a55184174c55027e40248219525b4fbe0f637f5f3a346c91a250565b600082815260208190526040902054829060ff161515610739576040805160e560020a62461bcd02815260206004820152602960248201527f57686974656c6973744173736574733a2074686520637265646974206973207060448201527f726f686962697465640000000000000000000000000000000000000000000000606482015290519081900360840190fd5b600254604080517fbeafd19f00000000000000000000000000000000000000000000000000000000815260048101869052336024820152604481018590529051600160a060020a039092169163beafd19f9160648082019260009290919082900301818387803b1580156107ac57600080fd5b505af11580156107c0573d6000803e3d6000fd5b505050508233600160a060020a031630600160a060020a03167fda16e0e36c9314946d6174ade0a7a5df06ffaf49c5c56d3f01193d53db0ace988560206040519081016040528060008152506040518083815260200180602001828103825283818151815260200191508051906020019080838360005b8381101561084f578181015183820152602001610837565b50505050905090810190601f16801561087c5780820380516001836020036101000a031916815260200191505b50935050505060405180910390a4505050565b600082815260208190526040902054829060ff16151561091f576040805160e560020a62461bcd02815260206004820152602960248201527f57686974656c6973744173736574733a2074686520637265646974206973207060448201527f726f686962697465640000000000000000000000000000000000000000000000606482015290519081900360840190fd5b6040805160018082528183019092526060916020808301908038833950506040805160018082528183019092529293506060929150602080830190803883390190505090503382600081518110151561097457fe5b600160a060020a03909216602092830290910190910152805184908290600090811061099c57fe5b60209081029091018101919091526002546040517f78b2722100000000000000000000000000000000000000000000000000000000815260048101888152606060248301908152865160648401528651600160a060020a03909416946378b27221948b948994899490939092604483019260840191878101910280838360005b83811015610a34578181015183820152602001610a1c565b50505050905001838103825284818151815260200191508051906020019060200280838360005b83811015610a73578181015183820152602001610a5b565b5050505090500195505050505050600060405180830381600087803b158015610a9b57600080fd5b505af1158015610aaf573d6000803e3d6000fd5b50506040805187815290518893503392507ff7870c5b224cbc19873599e46ccfc7103934650509b1af0c3ce90138377c20049181900360200190a35050505050565b811515610b6e576040805160e560020a62461bcd02815260206004820152602d60248201527f57686974656c6973744173736574733a2074686520637265646974206964206360448201527f616e6e6f74206265207a65726f00000000000000000000000000000000000000606482015290519081900360840190fd5b6000818152600160205260409020548214610bf9576040805160e560020a62461bcd02815260206004820152602860248201527f57686974656c6973744173736574733a20696e76616c69642072656d6f76652060448201527f617267756d656e74000000000000000000000000000000000000000000000000606482015290519081900360840190fd5b600082815260208181526040808320805460ff1916905560019091528082208054848452828420558483528290555183917fd8a3abf4ebfa76253e2780cdc5ec4857e8e40886cdcd10b169ecb18052d6ce2291a25050565b60016020526000908152604090205481565b600160a060020a0381166000908152600360209081526040808320338452918290529091205460ff16151560011415610d0c576040805160e560020a62461bcd02815260206004820152602d60248201527f4d6967726174696f6e3a2053656e6465722068617320616c7265616479206d6160448201527f646520612070726f706f73616c00000000000000000000000000000000000000606482015290519081900360840190fd5b336000908152602082905260409020805460ff19166001908117909155818101805461ffff808216909301831661ffff1990911617908190556002547401000000000000000000000000000000000000000090048216911610610ecc576000805260016020527fa6eef7e35abe7026729641147f7915573c7e97b47efa546f5f6e3230263bcb495482905b8015610e9557600254604080517fa048046b00000000000000000000000000000000000000000000000000000000815260048101849052600160a060020a0387811660248301529151919092169163a048046b91604480830192600092919082900301818387803b158015610e0b57600080fd5b505af1158015610e1f573d6000803e3d6000fd5b5050505081600160a060020a0316631003e2d2826040518263ffffffff1660e01b815260040180828152602001915050600060405180830381600087803b158015610e6957600080fd5b505af1158015610e7d573d6000803e3d6000fd5b50505060009182525060016020526040902054610d97565b50604051600160a060020a038416907fd58a618a39de682696ea37dd9a6bf9c793afa426fa1438e75c3966e3b541e45a90600090a2505b5050565b60006020819052908152604090205460ff168156fea165627a7a7230582054329811b4671406a4143859d423e43745328e7bc05c6cdd47c9e3ba708e79f70029",
  "source": "pragma solidity ^0.5.0;\n\nimport \"./WhitelistAssets.sol\";\nimport \"./ICreditCustodian.sol\";\n\n\ncontract StellarCreditCustodian is WhitelistAssets, ICreditCustodian {\n    struct MigrateProposal {\n        // mapping of signer to sign state\n        mapping(address => bool) signature;\n        // accumulated signature counter on the proposal\n        uint16 count;\n    }\n    uint16 private threshold;\n    // mapping of a new contract to a mapping of credit contract to the migration proposal\n    mapping(address => MigrateProposal) private proposals;\n\n    constructor(address _credit, uint16 _threshold) public WhitelistAssets(_credit) {\n        threshold = _threshold;\n    }\n\n    event Migrate(address indexed to);\n\n    /// @notice makes a migration vote to migrate credit contract binding to a new contract\n    /// also triggers the migration process when the migration vote threshold has reached\n    /// @param _to the new contract to replace this contract\n    function migrationVote(address _to) external {\n        MigrateProposal storage proposal = proposals[_to];\n        require(\n            proposal.signature[msg.sender] != true,\n            \"Migration: Sender has already made a proposal\"\n        );\n        proposal.signature[msg.sender] = true;\n        proposal.count = proposal.count + 1;\n        if (proposal.count >= threshold) {\n            WhitelistAssets whitelist = WhitelistAssets(_to);\n            for (uint256 creditID = linklist[0]; creditID != 0; creditID = linklist[creditID]) {\n                credit.setMinter(creditID, _to);\n                whitelist.add(creditID);\n            }\n            emit Migrate(_to);\n        }\n    }\n\n    /// @notice Lock user token the same amount of token will be unlocked on the stellar\n    /// @param _typeID the ID of credit to be locked\n    /// @param _value amount of tokens to be locked\n    function lock(uint256 _typeID, uint256 _value) external onlyWhitelistedAssets(_typeID) {\n        credit.burnFungible(_typeID, msg.sender, _value);\n        emit Lock(address(this), msg.sender, _typeID, _value, bytes(\"\"));\n    }\n\n    /// @notice Transfers some valid token to the destination address. The same amount of token on the stellar\n    /// will be locked in the stellar lock up account.\n    /// @param _typeID the ID of credit to be transferred\n    /// @param _value amount of tokens to be transferred\n    function unlock(uint256 _typeID, uint256 _value) external onlyWhitelistedAssets(_typeID) {\n        address[] memory tos = new address[](1);\n        uint256[] memory values = new uint256[](1);\n        tos[0] = msg.sender;\n        values[0] = _value;\n\n        credit.mintFungible(_typeID, tos, values);\n        emit Unlock(msg.sender, _typeID, _value);\n    }\n}\n",
  "sourcePath": "/Users/100x/Evrynetlabs/warp-contract/contracts/StellarCreditCustodian.sol",
  "compiler": {
    "name": "solc",
    "version": "0.5.0+commit.1d4f565a.Emscripten.clang"
  },
  "schemaVersion": "3.0.19",
  "updatedAt": "2020-04-10T07:42:01.208Z",
  "devdoc": {
    "methods": {
      "add(uint256)": {
        "params": {
          "_typeID": "the ID of credit being added"
        }
      },
      "lock(uint256,uint256)": {
        "params": {
          "_typeID": "the ID of credit to be locked",
          "_value": "amount of tokens to be locked"
        }
      },
      "migrationVote(address)": {
        "params": {
          "_to": "the new contract to replace this contract"
        }
      },
      "remove(uint256,uint256)": {
        "params": {
          "_prevTypeID": "the prior credit ID in the linklist",
          "_typeID": "the ID of credit being removed"
        }
      },
      "unlock(uint256,uint256)": {
        "params": {
          "_typeID": "the ID of credit to be transferred",
          "_value": "amount of tokens to be transferred"
        }
      }
    }
  },
  "userdoc": {
    "methods": {
      "add(uint256)": {
        "notice": "Add a new asset the whitelist asset database"
      },
      "lock(uint256,uint256)": {
        "notice": "Lock user token the same amount of token will be unlocked on the stellar"
      },
      "migrationVote(address)": {
        "notice": "makes a migration vote to migrate credit contract binding to a new contract also triggers the migration process when the migration vote threshold has reached"
      },
      "remove(uint256,uint256)": {
        "notice": "remove an asset from the whitelist asset database"
      },
      "unlock(uint256,uint256)": {
        "notice": "Transfers some valid token to the destination address. The same amount of token on the stellar will be locked in the stellar lock up account."
      }
    }
  }
}