{
  "contractName": "WhitelistAssets",
  "abi": [
    {
      "constant": true,
      "inputs": [
        {
          "name": "",
          "type": "uint256"
        }
      ],
      "name": "linklist",
      "outputs": [
        {
          "name": "",
          "type": "uint256"
        }
      ],
      "payable": false,
      "stateMutability": "view",
      "type": "function"
    },
    {
      "constant": true,
      "inputs": [
        {
          "name": "",
          "type": "uint256"
        }
      ],
      "name": "assets",
      "outputs": [
        {
          "name": "",
          "type": "bool"
        }
      ],
      "payable": false,
      "stateMutability": "view",
      "type": "function"
    },
    {
      "inputs": [
        {
          "name": "_credit",
          "type": "address"
        }
      ],
      "payable": false,
      "stateMutability": "nonpayable",
      "type": "constructor"
    },
    {
      "anonymous": false,
      "inputs": [
        {
          "indexed": true,
          "name": "typeID",
          "type": "uint256"
        }
      ],
      "name": "AddedAsset",
      "type": "event"
    },
    {
      "anonymous": false,
      "inputs": [
        {
          "indexed": true,
          "name": "typeID",
          "type": "uint256"
        }
      ],
      "name": "RemovedAsset",
      "type": "event"
    },
    {
      "constant": false,
      "inputs": [
        {
          "name": "_typeID",
          "type": "uint256"
        }
      ],
      "name": "add",
      "outputs": [],
      "payable": false,
      "stateMutability": "nonpayable",
      "type": "function"
    },
    {
      "constant": false,
      "inputs": [
        {
          "name": "_typeID",
          "type": "uint256"
        },
        {
          "name": "_prevTypeID",
          "type": "uint256"
        }
      ],
      "name": "remove",
      "outputs": [],
      "payable": false,
      "stateMutability": "nonpayable",
      "type": "function"
    }
  ],
  "bytecode": "0x608060405234801561001057600080fd5b506040516020806108228339810180604052602081101561003057600080fd5b505160028054600160a060020a031916600160a060020a039092169190911790556107c2806100606000396000f3fe6080604052600436106100455760003560e01c63ffffffff1680631003e2d21461004a5780636526db7a1461007657806371bc35ab146100a6578063cf35bdd0146100e2575b600080fd5b34801561005657600080fd5b506100746004803603602081101561006d57600080fd5b5035610120565b005b34801561008257600080fd5b506100746004803603604081101561009957600080fd5b508035906020013561060f565b3480156100b257600080fd5b506100d0600480360360208110156100c957600080fd5b503561076f565b60408051918252519081900360200190f35b3480156100ee57600080fd5b5061010c6004803603602081101561010557600080fd5b5035610781565b604080519115158252519081900360200190f35b60008181526020819052604090205460ff16156101d3576040805160e560020a62461bcd02815260206004820152604c60248201527f57686974656c6973744173736574733a2063616e6e6f7420616464207468652060448201527f617373657420746861742068617320616c7265616479206265656e20696e207460648201527f68652077686974656c6973740000000000000000000000000000000000000000608482015290519081900360a40190fd5b801515610250576040805160e560020a62461bcd02815260206004820152602d60248201527f57686974656c6973744173736574733a2074686520637265646974206964206360448201527f616e6e6f74206265207a65726f00000000000000000000000000000000000000606482015290519081900360840190fd5b600254604080517f01c376a000000000000000000000000000000000000000000000000000000000815260048101849052905173ffffffffffffffffffffffffffffffffffffffff909216916301c376a091602480820192600092909190829003018186803b1580156102c257600080fd5b505afa1580156102d6573d6000803e3d6000fd5b505050506040513d6000823e601f3d908101601f1916820160405260208110156102ff57600080fd5b81019080805164010000000081111561031757600080fd5b8201602081018481111561032a57600080fd5b815164010000000081118282018710171561034457600080fd5b50506040517f7e4115ba00000000000000000000000000000000000000000000000000000000815260206004820181815283516024840152835173__Convert_______________________________9750637e4115ba96509394509283926044019185019080838360005b838110156103c75781810151838201526020016103af565b50505050905090810190601f1680156103f45780820380516001836020036101000a031916815260200191505b509250505060206040518083038186803b15801561041157600080fd5b505af4158015610425573d6000803e3d6000fd5b505050506040513d602081101561043b57600080fd5b5051604080517f01ffc9a70000000000000000000000000000000000000000000000000000000081527f2ad5032c000000000000000000000000000000000000000000000000000000006004820152905173ffffffffffffffffffffffffffffffffffffffff909216916301ffc9a791602480820192602092909190829003018186803b1580156104cb57600080fd5b505afa1580156104df573d6000803e3d6000fd5b505050506040513d60208110156104f557600080fd5b50511515610599576040805160e560020a62461bcd02815260206004820152604160248201527f57686974656c6973744173736574733a20746865206d6574616461746120636f60448201527f6e7472616374206973206e6f7420737570706f7274656420696e74657266616360648201527f6500000000000000000000000000000000000000000000000000000000000000608482015290519081900360a40190fd5b600081815260208181526040808320805460ff191660019081179091559091527fa6eef7e35abe7026729641147f7915573c7e97b47efa546f5f6e3230263bcb498054828420558280528390555182917f808590b2e92602ac21a55184174c55027e40248219525b4fbe0f637f5f3a346c91a250565b81151561068c576040805160e560020a62461bcd02815260206004820152602d60248201527f57686974656c6973744173736574733a2074686520637265646974206964206360448201527f616e6e6f74206265207a65726f00000000000000000000000000000000000000606482015290519081900360840190fd5b6000818152600160205260409020548214610717576040805160e560020a62461bcd02815260206004820152602860248201527f57686974656c6973744173736574733a20696e76616c69642072656d6f76652060448201527f617267756d656e74000000000000000000000000000000000000000000000000606482015290519081900360840190fd5b600082815260208181526040808320805460ff1916905560019091528082208054848452828420558483528290555183917fd8a3abf4ebfa76253e2780cdc5ec4857e8e40886cdcd10b169ecb18052d6ce2291a25050565b60016020526000908152604090205481565b60006020819052908152604090205460ff168156fea165627a7a72305820bf881b757d3e2f7b01629733146e48eb5e815801038fe088906ba219102489ca0029",
  "source": "pragma solidity ^0.5.0;\n\nimport \"./Metadata.sol\";\nimport \"./lib/Convert.sol\";\nimport \"@Evrynetlabs/credit-contract/contracts/EER2B.sol\";\nimport \"@openzeppelin/contracts/introspection/IERC165.sol\";\n\n\n/// WhitelistAssets keeps a whitelist assets record which warp allows to move cross chain\ncontract WhitelistAssets {\n    using Convert for string;\n\n    mapping(uint256 => bool) public assets;\n    mapping(uint256 => uint256) public linklist;\n\n    EER2B internal credit;\n\n    bytes4 private constant INTERFACE_SIGNATURE_METADATA = 0x2ad5032c;\n\n    constructor(address _credit) public {\n        credit = EER2B(_credit);\n    }\n\n    modifier onlyWhitelistedAssets(uint256 _typeID) {\n        require(assets[_typeID], \"WhitelistAssets: the credit is prohibited\");\n        _;\n    }\n\n    /// @dev AddedAsset MUST emit when credit ID is added to the whitelist\n    /// @param typeID the ID of the added credit\n    event AddedAsset(uint256 indexed typeID);\n\n    /// Add a new asset the whitelist asset database\n    /// @param _typeID the ID of credit being added\n    function add(uint256 _typeID) external {\n        require(\n            assets[_typeID] == false,\n            \"WhitelistAssets: cannot add the asset that has already been in the whitelist\"\n        );\n        require(_typeID != 0, \"WhitelistAssets: the credit id cannot be zero\");\n        require(\n            IERC165(credit.metalinks(_typeID).toAddress()).supportsInterface(\n                INTERFACE_SIGNATURE_METADATA\n            ),\n            \"WhitelistAssets: the metadata contract is not supported interface\"\n        );\n        assets[_typeID] = true;\n        linklist[_typeID] = linklist[0];\n        linklist[0] = _typeID;\n        emit AddedAsset(_typeID);\n    }\n\n    /// @dev RemovedAsset MUST emit when credit ID is removed to the whitelist\n    /// @param typeID the ID of the removed credit\n    event RemovedAsset(uint256 indexed typeID);\n\n    /// remove an asset from the whitelist asset database\n    /// @param _typeID the ID of credit being removed\n    /// @param _prevTypeID the prior credit ID in the linklist\n    function remove(uint256 _typeID, uint256 _prevTypeID) external {\n        require(_typeID != 0, \"WhitelistAssets: the credit id cannot be zero\");\n        require(\n            linklist[_prevTypeID] == _typeID,\n            \"WhitelistAssets: invalid remove argument\"\n        );\n        assets[_typeID] = false;\n        linklist[_prevTypeID] = linklist[_typeID];\n        linklist[_typeID] = 0;\n        emit RemovedAsset(_typeID);\n    }\n}\n",
  "sourcePath": "/Users/100x/Evrynetlabs/warp-contract/contracts/WhitelistAssets.sol",
  "compiler": {
    "name": "solc",
    "version": "0.5.0+commit.1d4f565a.Emscripten.clang"
  },
  "schemaVersion": "3.0.19",
  "updatedAt": "2020-03-20T07:56:39.931Z",
  "devdoc": {
    "methods": {
      "add(uint256)": {
        "params": {
          "_typeID": "the ID of credit being added"
        }
      },
      "remove(uint256,uint256)": {
        "params": {
          "_prevTypeID": "the prior credit ID in the linklist",
          "_typeID": "the ID of credit being removed"
        }
      }
    }
  },
  "userdoc": {
    "methods": {
      "add(uint256)": {
        "notice": "Add a new asset the whitelist asset database"
      },
      "remove(uint256,uint256)": {
        "notice": "remove an asset from the whitelist asset database"
      }
    },
    "notice": "WhitelistAssets keeps a whitelist assets record which warp allows to move cross chain"
  }
}